{
  "_format": "hh-sol-artifact-1",
  "contractName": "FighterNFT",
  "sourceName": "contracts/FighterNFT.sol",
  "abi": [
    {
      "inputs": [],
      "stateMutability": "nonpayable",
      "type": "constructor"
    },
    {
      "anonymous": false,
      "inputs": [
        {
          "indexed": true,
          "internalType": "address",
          "name": "owner",
          "type": "address"
        },
        {
          "indexed": true,
          "internalType": "address",
          "name": "approved",
          "type": "address"
        },
        {
          "indexed": true,
          "internalType": "uint256",
          "name": "tokenId",
          "type": "uint256"
        }
      ],
      "name": "Approval",
      "type": "event"
    },
    {
      "anonymous": false,
      "inputs": [
        {
          "indexed": true,
          "internalType": "address",
          "name": "owner",
          "type": "address"
        },
        {
          "indexed": true,
          "internalType": "address",
          "name": "operator",
          "type": "address"
        },
        {
          "indexed": false,
          "internalType": "bool",
          "name": "approved",
          "type": "bool"
        }
      ],
      "name": "ApprovalForAll",
      "type": "event"
    },
    {
      "anonymous": false,
      "inputs": [
        {
          "indexed": true,
          "internalType": "bytes32",
          "name": "role",
          "type": "bytes32"
        },
        {
          "indexed": true,
          "internalType": "bytes32",
          "name": "previousAdminRole",
          "type": "bytes32"
        },
        {
          "indexed": true,
          "internalType": "bytes32",
          "name": "newAdminRole",
          "type": "bytes32"
        }
      ],
      "name": "RoleAdminChanged",
      "type": "event"
    },
    {
      "anonymous": false,
      "inputs": [
        {
          "indexed": true,
          "internalType": "bytes32",
          "name": "role",
          "type": "bytes32"
        },
        {
          "indexed": true,
          "internalType": "address",
          "name": "account",
          "type": "address"
        },
        {
          "indexed": true,
          "internalType": "address",
          "name": "sender",
          "type": "address"
        }
      ],
      "name": "RoleGranted",
      "type": "event"
    },
    {
      "anonymous": false,
      "inputs": [
        {
          "indexed": true,
          "internalType": "bytes32",
          "name": "role",
          "type": "bytes32"
        },
        {
          "indexed": true,
          "internalType": "address",
          "name": "account",
          "type": "address"
        },
        {
          "indexed": true,
          "internalType": "address",
          "name": "sender",
          "type": "address"
        }
      ],
      "name": "RoleRevoked",
      "type": "event"
    },
    {
      "anonymous": false,
      "inputs": [
        {
          "indexed": true,
          "internalType": "address",
          "name": "from",
          "type": "address"
        },
        {
          "indexed": true,
          "internalType": "address",
          "name": "to",
          "type": "address"
        },
        {
          "indexed": true,
          "internalType": "uint256",
          "name": "tokenId",
          "type": "uint256"
        }
      ],
      "name": "Transfer",
      "type": "event"
    },
    {
      "inputs": [],
      "name": "DEFAULT_ADMIN_ROLE",
      "outputs": [
        {
          "internalType": "bytes32",
          "name": "",
          "type": "bytes32"
        }
      ],
      "stateMutability": "view",
      "type": "function"
    },
    {
      "inputs": [],
      "name": "MINTER_ROLE",
      "outputs": [
        {
          "internalType": "bytes32",
          "name": "",
          "type": "bytes32"
        }
      ],
      "stateMutability": "view",
      "type": "function"
    },
    {
      "inputs": [
        {
          "internalType": "address",
          "name": "to",
          "type": "address"
        },
        {
          "internalType": "uint256",
          "name": "tokenId",
          "type": "uint256"
        }
      ],
      "name": "approve",
      "outputs": [],
      "stateMutability": "nonpayable",
      "type": "function"
    },
    {
      "inputs": [
        {
          "internalType": "address",
          "name": "owner",
          "type": "address"
        }
      ],
      "name": "balanceOf",
      "outputs": [
        {
          "internalType": "uint256",
          "name": "",
          "type": "uint256"
        }
      ],
      "stateMutability": "view",
      "type": "function"
    },
    {
      "inputs": [
        {
          "internalType": "uint256",
          "name": "tokenId",
          "type": "uint256"
        }
      ],
      "name": "burn",
      "outputs": [],
      "stateMutability": "nonpayable",
      "type": "function"
    },
    {
      "inputs": [
        {
          "internalType": "uint256",
          "name": "tokenId",
          "type": "uint256"
        }
      ],
      "name": "getApproved",
      "outputs": [
        {
          "internalType": "address",
          "name": "",
          "type": "address"
        }
      ],
      "stateMutability": "view",
      "type": "function"
    },
    {
      "inputs": [
        {
          "internalType": "bytes32",
          "name": "role",
          "type": "bytes32"
        }
      ],
      "name": "getRoleAdmin",
      "outputs": [
        {
          "internalType": "bytes32",
          "name": "",
          "type": "bytes32"
        }
      ],
      "stateMutability": "view",
      "type": "function"
    },
    {
      "inputs": [
        {
          "internalType": "bytes32",
          "name": "role",
          "type": "bytes32"
        },
        {
          "internalType": "uint256",
          "name": "index",
          "type": "uint256"
        }
      ],
      "name": "getRoleMember",
      "outputs": [
        {
          "internalType": "address",
          "name": "",
          "type": "address"
        }
      ],
      "stateMutability": "view",
      "type": "function"
    },
    {
      "inputs": [
        {
          "internalType": "bytes32",
          "name": "role",
          "type": "bytes32"
        }
      ],
      "name": "getRoleMemberCount",
      "outputs": [
        {
          "internalType": "uint256",
          "name": "",
          "type": "uint256"
        }
      ],
      "stateMutability": "view",
      "type": "function"
    },
    {
      "inputs": [
        {
          "internalType": "bytes32",
          "name": "role",
          "type": "bytes32"
        },
        {
          "internalType": "address",
          "name": "account",
          "type": "address"
        }
      ],
      "name": "grantRole",
      "outputs": [],
      "stateMutability": "nonpayable",
      "type": "function"
    },
    {
      "inputs": [
        {
          "internalType": "bytes32",
          "name": "role",
          "type": "bytes32"
        },
        {
          "internalType": "address",
          "name": "account",
          "type": "address"
        }
      ],
      "name": "hasRole",
      "outputs": [
        {
          "internalType": "bool",
          "name": "",
          "type": "bool"
        }
      ],
      "stateMutability": "view",
      "type": "function"
    },
    {
      "inputs": [
        {
          "internalType": "address",
          "name": "owner",
          "type": "address"
        },
        {
          "internalType": "address",
          "name": "operator",
          "type": "address"
        }
      ],
      "name": "isApprovedForAll",
      "outputs": [
        {
          "internalType": "bool",
          "name": "",
          "type": "bool"
        }
      ],
      "stateMutability": "view",
      "type": "function"
    },
    {
      "inputs": [],
      "name": "name",
      "outputs": [
        {
          "internalType": "string",
          "name": "",
          "type": "string"
        }
      ],
      "stateMutability": "view",
      "type": "function"
    },
    {
      "inputs": [
        {
          "internalType": "uint256",
          "name": "tokenId",
          "type": "uint256"
        }
      ],
      "name": "ownerOf",
      "outputs": [
        {
          "internalType": "address",
          "name": "",
          "type": "address"
        }
      ],
      "stateMutability": "view",
      "type": "function"
    },
    {
      "inputs": [
        {
          "internalType": "bytes32",
          "name": "role",
          "type": "bytes32"
        },
        {
          "internalType": "address",
          "name": "account",
          "type": "address"
        }
      ],
      "name": "renounceRole",
      "outputs": [],
      "stateMutability": "nonpayable",
      "type": "function"
    },
    {
      "inputs": [
        {
          "internalType": "bytes32",
          "name": "role",
          "type": "bytes32"
        },
        {
          "internalType": "address",
          "name": "account",
          "type": "address"
        }
      ],
      "name": "revokeRole",
      "outputs": [],
      "stateMutability": "nonpayable",
      "type": "function"
    },
    {
      "inputs": [
        {
          "internalType": "address",
          "name": "to",
          "type": "address"
        }
      ],
      "name": "safeMint",
      "outputs": [],
      "stateMutability": "nonpayable",
      "type": "function"
    },
    {
      "inputs": [
        {
          "internalType": "address",
          "name": "from",
          "type": "address"
        },
        {
          "internalType": "address",
          "name": "to",
          "type": "address"
        },
        {
          "internalType": "uint256",
          "name": "tokenId",
          "type": "uint256"
        }
      ],
      "name": "safeTransferFrom",
      "outputs": [],
      "stateMutability": "nonpayable",
      "type": "function"
    },
    {
      "inputs": [
        {
          "internalType": "address",
          "name": "from",
          "type": "address"
        },
        {
          "internalType": "address",
          "name": "to",
          "type": "address"
        },
        {
          "internalType": "uint256",
          "name": "tokenId",
          "type": "uint256"
        },
        {
          "internalType": "bytes",
          "name": "data",
          "type": "bytes"
        }
      ],
      "name": "safeTransferFrom",
      "outputs": [],
      "stateMutability": "nonpayable",
      "type": "function"
    },
    {
      "inputs": [
        {
          "internalType": "address",
          "name": "operator",
          "type": "address"
        },
        {
          "internalType": "bool",
          "name": "approved",
          "type": "bool"
        }
      ],
      "name": "setApprovalForAll",
      "outputs": [],
      "stateMutability": "nonpayable",
      "type": "function"
    },
    {
      "inputs": [
        {
          "internalType": "address",
          "name": "withdrawer",
          "type": "address"
        }
      ],
      "name": "setWithdrawAccount",
      "outputs": [],
      "stateMutability": "nonpayable",
      "type": "function"
    },
    {
      "inputs": [
        {
          "internalType": "bytes4",
          "name": "interfaceId",
          "type": "bytes4"
        }
      ],
      "name": "supportsInterface",
      "outputs": [
        {
          "internalType": "bool",
          "name": "",
          "type": "bool"
        }
      ],
      "stateMutability": "view",
      "type": "function"
    },
    {
      "inputs": [],
      "name": "symbol",
      "outputs": [
        {
          "internalType": "string",
          "name": "",
          "type": "string"
        }
      ],
      "stateMutability": "view",
      "type": "function"
    },
    {
      "inputs": [
        {
          "internalType": "uint256",
          "name": "tokenId",
          "type": "uint256"
        }
      ],
      "name": "tokenURI",
      "outputs": [
        {
          "internalType": "string",
          "name": "",
          "type": "string"
        }
      ],
      "stateMutability": "view",
      "type": "function"
    },
    {
      "inputs": [
        {
          "internalType": "address",
          "name": "from",
          "type": "address"
        },
        {
          "internalType": "address",
          "name": "to",
          "type": "address"
        },
        {
          "internalType": "uint256",
          "name": "tokenId",
          "type": "uint256"
        }
      ],
      "name": "transferFrom",
      "outputs": [],
      "stateMutability": "nonpayable",
      "type": "function"
    },
    {
      "inputs": [],
      "name": "withdrawJPYC",
      "outputs": [],
      "stateMutability": "nonpayable",
      "type": "function"
    }
  ],
  "bytecode": "0x6080604052736ae7dfc73e0dde2aa99ac063dcf7e8a63265108c600960006101000a81548173ffffffffffffffffffffffffffffffffffffffff021916908373ffffffffffffffffffffffffffffffffffffffff1602179055503480156200006657600080fd5b506040518060400160405280600a81526020017f466967687465724e4654000000000000000000000000000000000000000000008152506040518060400160405280600381526020017f46495400000000000000000000000000000000000000000000000000000000008152508160009081620000e4919062000683565b508060019081620000f6919062000683565b5050506200010e6000801b336200018760201b60201c565b620001407f9f2df0fed2c77648de5860a4cc508cd0818c85b8b8a1ab4ceeef8d981c8956a6336200018760201b60201c565b33600860006101000a81548173ffffffffffffffffffffffffffffffffffffffff021916908373ffffffffffffffffffffffffffffffffffffffff1602179055506200076a565b6200019e8282620001cf60201b620010761760201c565b620001ca8160076000858152602001908152602001600020620002c160201b620011571790919060201c565b505050565b620001e18282620002f960201b60201c565b620002bd5760016006600084815260200190815260200160002060000160008373ffffffffffffffffffffffffffffffffffffffff1673ffffffffffffffffffffffffffffffffffffffff16815260200190815260200160002060006101000a81548160ff021916908315150217905550620002626200036460201b60201c565b73ffffffffffffffffffffffffffffffffffffffff168173ffffffffffffffffffffffffffffffffffffffff16837f2f8788117e7eff1d82e926ec794901d17c78024a50270940304540a733656f0d60405160405180910390a45b5050565b6000620002f1836000018373ffffffffffffffffffffffffffffffffffffffff1660001b6200036c60201b60201c565b905092915050565b60006006600084815260200190815260200160002060000160008373ffffffffffffffffffffffffffffffffffffffff1673ffffffffffffffffffffffffffffffffffffffff16815260200190815260200160002060009054906101000a900460ff16905092915050565b600033905090565b6000620003808383620003e660201b60201c565b620003db578260000182908060018154018082558091505060019003906000526020600020016000909190919091505582600001805490508360010160008481526020019081526020016000208190555060019050620003e0565b600090505b92915050565b600080836001016000848152602001908152602001600020541415905092915050565b600081519050919050565b7f4e487b7100000000000000000000000000000000000000000000000000000000600052604160045260246000fd5b7f4e487b7100000000000000000000000000000000000000000000000000000000600052602260045260246000fd5b600060028204905060018216806200048b57607f821691505b602082108103620004a157620004a062000443565b5b50919050565b60008190508160005260206000209050919050565b60006020601f8301049050919050565b600082821b905092915050565b6000600883026200050b7fffffffffffffffffffffffffffffffffffffffffffffffffffffffffffffffff82620004cc565b620005178683620004cc565b95508019841693508086168417925050509392505050565b6000819050919050565b6000819050919050565b6000620005646200055e62000558846200052f565b62000539565b6200052f565b9050919050565b6000819050919050565b620005808362000543565b620005986200058f826200056b565b848454620004d9565b825550505050565b600090565b620005af620005a0565b620005bc81848462000575565b505050565b5b81811015620005e457620005d8600082620005a5565b600181019050620005c2565b5050565b601f8211156200063357620005fd81620004a7565b6200060884620004bc565b8101602085101562000618578190505b620006306200062785620004bc565b830182620005c1565b50505b505050565b600082821c905092915050565b6000620006586000198460080262000638565b1980831691505092915050565b600062000673838362000645565b9150826002028217905092915050565b6200068e8262000409565b67ffffffffffffffff811115620006aa57620006a962000414565b5b620006b6825462000472565b620006c3828285620005e8565b600060209050601f831160018114620006fb5760008415620006e6578287015190505b620006f2858262000665565b86555062000762565b601f1984166200070b86620004a7565b60005b8281101562000735578489015182556001820191506020850194506020810190506200070e565b8683101562000755578489015162000751601f89168262000645565b8355505b6001600288020188555050505b505050505050565b613bd1806200077a6000396000f3fe608060405234801561001057600080fd5b506004361061018e5760003560e01c806370a08231116100de578063b88d4fde11610097578063d539139311610071578063d5391393146104b5578063d547741f146104d3578063e985e9c5146104ef578063f5baa0dc1461051f5761018e565b8063b88d4fde14610439578063c87b56dd14610455578063ca15c873146104855761018e565b806370a08231146103515780639010d07c1461038157806391d14854146103b157806395d89b41146103e1578063a217fddf146103ff578063a22cb4651461041d5761018e565b80632f2ff15d1161014b57806340d097c31161012557806340d097c3146102cd57806342842e0e146102e957806342966c68146103055780636352211e146103215761018e565b80632f2ff15d1461027957806335a9a5c71461029557806336568abe146102b15761018e565b806301ffc9a71461019357806306fdde03146101c3578063081812fc146101e1578063095ea7b31461021157806323b872dd1461022d578063248a9ca314610249575b600080fd5b6101ad60048036038101906101a891906128bc565b610529565b6040516101ba9190612904565b60405180910390f35b6101cb61053b565b6040516101d891906129af565b60405180910390f35b6101fb60048036038101906101f69190612a07565b6105cd565b6040516102089190612a75565b60405180910390f35b61022b60048036038101906102269190612abc565b610613565b005b61024760048036038101906102429190612afc565b61072a565b005b610263600480360381019061025e9190612b85565b61078a565b6040516102709190612bc1565b60405180910390f35b610293600480360381019061028e9190612bdc565b6107aa565b005b6102af60048036038101906102aa9190612c1c565b6107cb565b005b6102cb60048036038101906102c69190612bdc565b61089f565b005b6102e760048036038101906102e29190612c1c565b610922565b005b61030360048036038101906102fe9190612afc565b610a6a565b005b61031f600480360381019061031a9190612a07565b610a8a565b005b61033b60048036038101906103369190612a07565b610ae6565b6040516103489190612a75565b60405180910390f35b61036b60048036038101906103669190612c1c565b610b6c565b6040516103789190612c58565b60405180910390f35b61039b60048036038101906103969190612c73565b610c23565b6040516103a89190612a75565b60405180910390f35b6103cb60048036038101906103c69190612bdc565b610c52565b6040516103d89190612904565b60405180910390f35b6103e9610cbd565b6040516103f691906129af565b60405180910390f35b610407610d4f565b6040516104149190612bc1565b60405180910390f35b61043760048036038101906104329190612cdf565b610d56565b005b610453600480360381019061044e9190612e54565b610d6c565b005b61046f600480360381019061046a9190612a07565b610dce565b60405161047c91906129af565b60405180910390f35b61049f600480360381019061049a9190612b85565b610dee565b6040516104ac9190612c58565b60405180910390f35b6104bd610e12565b6040516104ca9190612bc1565b60405180910390f35b6104ed60048036038101906104e89190612bdc565b610e36565b005b61050960048036038101906105049190612ed7565b610e57565b6040516105169190612904565b60405180910390f35b610527610eeb565b005b600061053482611187565b9050919050565b60606000805461054a90612f46565b80601f016020809104026020016040519081016040528092919081815260200182805461057690612f46565b80156105c35780601f10610598576101008083540402835291602001916105c3565b820191906000526020600020905b8154815290600101906020018083116105a657829003601f168201915b5050505050905090565b60006105d882611201565b6004600083815260200190815260200160002060009054906101000a900473ffffffffffffffffffffffffffffffffffffffff169050919050565b600061061e82610ae6565b90508073ffffffffffffffffffffffffffffffffffffffff168373ffffffffffffffffffffffffffffffffffffffff160361068e576040517f08c379a000000000000000000000000000000000000000000000000000000000815260040161068590612fe9565b60405180910390fd5b8073ffffffffffffffffffffffffffffffffffffffff166106ad61124c565b73ffffffffffffffffffffffffffffffffffffffff1614806106dc57506106db816106d661124c565b610e57565b5b61071b576040517f08c379a00000000000000000000000000000000000000000000000000000000081526004016107129061307b565b60405180910390fd5b6107258383611254565b505050565b61073b61073561124c565b8261130d565b61077a576040517f08c379a00000000000000000000000000000000000000000000000000000000081526004016107719061310d565b60405180910390fd5b6107858383836113a2565b505050565b600060066000838152602001908152602001600020600101549050919050565b6107b38261078a565b6107bc8161169b565b6107c683836116af565b505050565b600860009054906101000a900473ffffffffffffffffffffffffffffffffffffffff1673ffffffffffffffffffffffffffffffffffffffff163373ffffffffffffffffffffffffffffffffffffffff161461085b576040517f08c379a000000000000000000000000000000000000000000000000000000000815260040161085290613179565b60405180910390fd5b80600860006101000a81548173ffffffffffffffffffffffffffffffffffffffff021916908373ffffffffffffffffffffffffffffffffffffffff16021790555050565b6108a761124c565b73ffffffffffffffffffffffffffffffffffffffff168173ffffffffffffffffffffffffffffffffffffffff1614610914576040517f08c379a000000000000000000000000000000000000000000000000000000000815260040161090b9061320b565b60405180910390fd5b61091e82826116e3565b5050565b7f9f2df0fed2c77648de5860a4cc508cd0818c85b8b8a1ab4ceeef8d981c8956a661094c8161169b565b600061095733610b6c565b14610997576040517f08c379a000000000000000000000000000000000000000000000000000000000815260040161098e9061329d565b60405180910390fd5b600960009054906101000a900473ffffffffffffffffffffffffffffffffffffffff1673ffffffffffffffffffffffffffffffffffffffff166323b872dd3330600a6040518463ffffffff1660e01b81526004016109f793929190613302565b6020604051808303816000875af1158015610a16573d6000803e3d6000fd5b505050506040513d601f19601f82011682018060405250810190610a3a919061334e565b610a4357600080fd5b6000610a4f600a611717565b9050610a5b600a611725565b610a65838261173b565b505050565b610a8583838360405180602001604052806000815250610d6c565b505050565b610a9b610a9561124c565b8261130d565b610ada576040517f08c379a0000000000000000000000000000000000000000000000000000000008152600401610ad19061310d565b60405180910390fd5b610ae381611759565b50565b600080610af2836118a7565b9050600073ffffffffffffffffffffffffffffffffffffffff168173ffffffffffffffffffffffffffffffffffffffff1603610b63576040517f08c379a0000000000000000000000000000000000000000000000000000000008152600401610b5a906133c7565b60405180910390fd5b80915050919050565b60008073ffffffffffffffffffffffffffffffffffffffff168273ffffffffffffffffffffffffffffffffffffffff1603610bdc576040517f08c379a0000000000000000000000000000000000000000000000000000000008152600401610bd390613459565b60405180910390fd5b600360008373ffffffffffffffffffffffffffffffffffffffff1673ffffffffffffffffffffffffffffffffffffffff168152602001908152602001600020549050919050565b6000610c4a82600760008681526020019081526020016000206118e490919063ffffffff16565b905092915050565b60006006600084815260200190815260200160002060000160008373ffffffffffffffffffffffffffffffffffffffff1673ffffffffffffffffffffffffffffffffffffffff16815260200190815260200160002060009054906101000a900460ff16905092915050565b606060018054610ccc90612f46565b80601f0160208091040260200160405190810160405280929190818152602001828054610cf890612f46565b8015610d455780601f10610d1a57610100808354040283529160200191610d45565b820191906000526020600020905b815481529060010190602001808311610d2857829003601f168201915b5050505050905090565b6000801b81565b610d68610d6161124c565b83836118fe565b5050565b610d7d610d7761124c565b8361130d565b610dbc576040517f08c379a0000000000000000000000000000000000000000000000000000000008152600401610db39061310d565b60405180910390fd5b610dc884848484611a6a565b50505050565b6060610dd982611201565b6000610de3611ac6565b905080915050919050565b6000610e0b60076000848152602001908152602001600020611b03565b9050919050565b7f9f2df0fed2c77648de5860a4cc508cd0818c85b8b8a1ab4ceeef8d981c8956a681565b610e3f8261078a565b610e488161169b565b610e5283836116e3565b505050565b6000600560008473ffffffffffffffffffffffffffffffffffffffff1673ffffffffffffffffffffffffffffffffffffffff16815260200190815260200160002060008373ffffffffffffffffffffffffffffffffffffffff1673ffffffffffffffffffffffffffffffffffffffff16815260200190815260200160002060009054906101000a900460ff16905092915050565b7f9f2df0fed2c77648de5860a4cc508cd0818c85b8b8a1ab4ceeef8d981c8956a6610f158161169b565b600960009054906101000a900473ffffffffffffffffffffffffffffffffffffffff1673ffffffffffffffffffffffffffffffffffffffff1663a9059cbb600860009054906101000a900473ffffffffffffffffffffffffffffffffffffffff16600960009054906101000a900473ffffffffffffffffffffffffffffffffffffffff1673ffffffffffffffffffffffffffffffffffffffff166370a08231306040518263ffffffff1660e01b8152600401610fd19190612a75565b602060405180830381865afa158015610fee573d6000803e3d6000fd5b505050506040513d601f19601f82011682018060405250810190611012919061348e565b6040518363ffffffff1660e01b815260040161102f9291906134bb565b6020604051808303816000875af115801561104e573d6000803e3d6000fd5b505050506040513d601f19601f82011682018060405250810190611072919061334e565b5050565b6110808282610c52565b6111535760016006600084815260200190815260200160002060000160008373ffffffffffffffffffffffffffffffffffffffff1673ffffffffffffffffffffffffffffffffffffffff16815260200190815260200160002060006101000a81548160ff0219169083151502179055506110f861124c565b73ffffffffffffffffffffffffffffffffffffffff168173ffffffffffffffffffffffffffffffffffffffff16837f2f8788117e7eff1d82e926ec794901d17c78024a50270940304540a733656f0d60405160405180910390a45b5050565b600061117f836000018373ffffffffffffffffffffffffffffffffffffffff1660001b611b18565b905092915050565b60007f5a05180f000000000000000000000000000000000000000000000000000000007bffffffffffffffffffffffffffffffffffffffffffffffffffffffff1916827bffffffffffffffffffffffffffffffffffffffffffffffffffffffff191614806111fa57506111f982611b88565b5b9050919050565b61120a81611c02565b611249576040517f08c379a0000000000000000000000000000000000000000000000000000000008152600401611240906133c7565b60405180910390fd5b50565b600033905090565b816004600083815260200190815260200160002060006101000a81548173ffffffffffffffffffffffffffffffffffffffff021916908373ffffffffffffffffffffffffffffffffffffffff160217905550808273ffffffffffffffffffffffffffffffffffffffff166112c783610ae6565b73ffffffffffffffffffffffffffffffffffffffff167f8c5be1e5ebec7d5bd14f71427d1e84f3dd0314c0f7b2291e5b200ac8c7c3b92560405160405180910390a45050565b60008061131983610ae6565b90508073ffffffffffffffffffffffffffffffffffffffff168473ffffffffffffffffffffffffffffffffffffffff16148061135b575061135a8185610e57565b5b8061139957508373ffffffffffffffffffffffffffffffffffffffff16611381846105cd565b73ffffffffffffffffffffffffffffffffffffffff16145b91505092915050565b8273ffffffffffffffffffffffffffffffffffffffff166113c282610ae6565b73ffffffffffffffffffffffffffffffffffffffff1614611418576040517f08c379a000000000000000000000000000000000000000000000000000000000815260040161140f90613556565b60405180910390fd5b600073ffffffffffffffffffffffffffffffffffffffff168273ffffffffffffffffffffffffffffffffffffffff1603611487576040517f08c379a000000000000000000000000000000000000000000000000000000000815260040161147e906135e8565b60405180910390fd5b6114948383836001611c43565b8273ffffffffffffffffffffffffffffffffffffffff166114b482610ae6565b73ffffffffffffffffffffffffffffffffffffffff161461150a576040517f08c379a000000000000000000000000000000000000000000000000000000000815260040161150190613556565b60405180910390fd5b6004600082815260200190815260200160002060006101000a81549073ffffffffffffffffffffffffffffffffffffffff02191690556001600360008573ffffffffffffffffffffffffffffffffffffffff1673ffffffffffffffffffffffffffffffffffffffff168152602001908152602001600020600082825403925050819055506001600360008473ffffffffffffffffffffffffffffffffffffffff1673ffffffffffffffffffffffffffffffffffffffff16815260200190815260200160002060008282540192505081905550816002600083815260200190815260200160002060006101000a81548173ffffffffffffffffffffffffffffffffffffffff021916908373ffffffffffffffffffffffffffffffffffffffff160217905550808273ffffffffffffffffffffffffffffffffffffffff168473ffffffffffffffffffffffffffffffffffffffff167fddf252ad1be2c89b69c2b068fc378daa952ba7f163c4a11628f55a4df523b3ef60405160405180910390a46116968383836001611d69565b505050565b6116ac816116a761124c565b611d6f565b50565b6116b98282611076565b6116de816007600085815260200190815260200160002061115790919063ffffffff16565b505050565b6116ed8282611df4565b6117128160076000858152602001908152602001600020611ed690919063ffffffff16565b505050565b600081600001549050919050565b6001816000016000828254019250508190555050565b611755828260405180602001604052806000815250611f06565b5050565b600061176482610ae6565b9050611774816000846001611c43565b61177d82610ae6565b90506004600083815260200190815260200160002060006101000a81549073ffffffffffffffffffffffffffffffffffffffff02191690556001600360008373ffffffffffffffffffffffffffffffffffffffff1673ffffffffffffffffffffffffffffffffffffffff168152602001908152602001600020600082825403925050819055506002600083815260200190815260200160002060006101000a81549073ffffffffffffffffffffffffffffffffffffffff021916905581600073ffffffffffffffffffffffffffffffffffffffff168273ffffffffffffffffffffffffffffffffffffffff167fddf252ad1be2c89b69c2b068fc378daa952ba7f163c4a11628f55a4df523b3ef60405160405180910390a46118a3816000846001611d69565b5050565b60006002600083815260200190815260200160002060009054906101000a900473ffffffffffffffffffffffffffffffffffffffff169050919050565b60006118f38360000183611f61565b60001c905092915050565b8173ffffffffffffffffffffffffffffffffffffffff168373ffffffffffffffffffffffffffffffffffffffff160361196c576040517f08c379a000000000000000000000000000000000000000000000000000000000815260040161196390613654565b60405180910390fd5b80600560008573ffffffffffffffffffffffffffffffffffffffff1673ffffffffffffffffffffffffffffffffffffffff16815260200190815260200160002060008473ffffffffffffffffffffffffffffffffffffffff1673ffffffffffffffffffffffffffffffffffffffff16815260200190815260200160002060006101000a81548160ff0219169083151502179055508173ffffffffffffffffffffffffffffffffffffffff168373ffffffffffffffffffffffffffffffffffffffff167f17307eab39ab6107e8899845ad3d59bd9653f200f220920489ca2b5937696c3183604051611a5d9190612904565b60405180910390a3505050565b611a758484846113a2565b611a8184848484611f8c565b611ac0576040517f08c379a0000000000000000000000000000000000000000000000000000000008152600401611ab7906136e6565b60405180910390fd5b50505050565b60606040518060400160405280601d81526020017f68747470733a2f2f6a736f6e6b65657065722e636f6d2f622f5a473835000000815250905090565b6000611b1182600001612113565b9050919050565b6000611b248383612124565b611b7d578260000182908060018154018082558091505060019003906000526020600020016000909190919091505582600001805490508360010160008481526020019081526020016000208190555060019050611b82565b600090505b92915050565b60007f7965db0b000000000000000000000000000000000000000000000000000000007bffffffffffffffffffffffffffffffffffffffffffffffffffffffff1916827bffffffffffffffffffffffffffffffffffffffffffffffffffffffff19161480611bfb5750611bfa82612147565b5b9050919050565b60008073ffffffffffffffffffffffffffffffffffffffff16611c24836118a7565b73ffffffffffffffffffffffffffffffffffffffff1614159050919050565b6001811115611d6357600073ffffffffffffffffffffffffffffffffffffffff168473ffffffffffffffffffffffffffffffffffffffff1614611cd75780600360008673ffffffffffffffffffffffffffffffffffffffff1673ffffffffffffffffffffffffffffffffffffffff1681526020019081526020016000206000828254611ccf9190613735565b925050819055505b600073ffffffffffffffffffffffffffffffffffffffff168373ffffffffffffffffffffffffffffffffffffffff1614611d625780600360008573ffffffffffffffffffffffffffffffffffffffff1673ffffffffffffffffffffffffffffffffffffffff1681526020019081526020016000206000828254611d5a9190613769565b925050819055505b5b50505050565b50505050565b611d798282610c52565b611df057611d8681612229565b611d948360001c6020612256565b604051602001611da5929190613871565b6040516020818303038152906040526040517f08c379a0000000000000000000000000000000000000000000000000000000008152600401611de791906129af565b60405180910390fd5b5050565b611dfe8282610c52565b15611ed25760006006600084815260200190815260200160002060000160008373ffffffffffffffffffffffffffffffffffffffff1673ffffffffffffffffffffffffffffffffffffffff16815260200190815260200160002060006101000a81548160ff021916908315150217905550611e7761124c565b73ffffffffffffffffffffffffffffffffffffffff168173ffffffffffffffffffffffffffffffffffffffff16837ff6391f5c32d9c69d2a47ea670b442974b53935d1edc7fd64eb21e047a839171b60405160405180910390a45b5050565b6000611efe836000018373ffffffffffffffffffffffffffffffffffffffff1660001b612492565b905092915050565b611f1083836125a6565b611f1d6000848484611f8c565b611f5c576040517f08c379a0000000000000000000000000000000000000000000000000000000008152600401611f53906136e6565b60405180910390fd5b505050565b6000826000018281548110611f7957611f786138ab565b5b9060005260206000200154905092915050565b6000611fad8473ffffffffffffffffffffffffffffffffffffffff166127c3565b15612106578373ffffffffffffffffffffffffffffffffffffffff1663150b7a02611fd661124c565b8786866040518563ffffffff1660e01b8152600401611ff8949392919061392f565b6020604051808303816000875af192505050801561203457506040513d601f19601f820116820180604052508101906120319190613990565b60015b6120b6573d8060008114612064576040519150601f19603f3d011682016040523d82523d6000602084013e612069565b606091505b5060008151036120ae576040517f08c379a00000000000000000000000000000000000000000000000000000000081526004016120a5906136e6565b60405180910390fd5b805181602001fd5b63150b7a0260e01b7bffffffffffffffffffffffffffffffffffffffffffffffffffffffff1916817bffffffffffffffffffffffffffffffffffffffffffffffffffffffff19161491505061210b565b600190505b949350505050565b600081600001805490509050919050565b600080836001016000848152602001908152602001600020541415905092915050565b60007f80ac58cd000000000000000000000000000000000000000000000000000000007bffffffffffffffffffffffffffffffffffffffffffffffffffffffff1916827bffffffffffffffffffffffffffffffffffffffffffffffffffffffff1916148061221257507f5b5e139f000000000000000000000000000000000000000000000000000000007bffffffffffffffffffffffffffffffffffffffffffffffffffffffff1916827bffffffffffffffffffffffffffffffffffffffffffffffffffffffff1916145b806122225750612221826127e6565b5b9050919050565b606061224f8273ffffffffffffffffffffffffffffffffffffffff16601460ff16612256565b9050919050565b60606000600283600261226991906139bd565b6122739190613769565b67ffffffffffffffff81111561228c5761228b612d29565b5b6040519080825280601f01601f1916602001820160405280156122be5781602001600182028036833780820191505090505b5090507f3000000000000000000000000000000000000000000000000000000000000000816000815181106122f6576122f56138ab565b5b60200101907effffffffffffffffffffffffffffffffffffffffffffffffffffffffffffff1916908160001a9053507f78000000000000000000000000000000000000000000000000000000000000008160018151811061235a576123596138ab565b5b60200101907effffffffffffffffffffffffffffffffffffffffffffffffffffffffffffff1916908160001a9053506000600184600261239a91906139bd565b6123a49190613769565b90505b6001811115612444577f3031323334353637383961626364656600000000000000000000000000000000600f8616601081106123e6576123e56138ab565b5b1a60f81b8282815181106123fd576123fc6138ab565b5b60200101907effffffffffffffffffffffffffffffffffffffffffffffffffffffffffffff1916908160001a905350600485901c94508061243d906139ff565b90506123a7565b5060008414612488576040517f08c379a000000000000000000000000000000000000000000000000000000000815260040161247f90613a74565b60405180910390fd5b8091505092915050565b6000808360010160008481526020019081526020016000205490506000811461259a5760006001826124c49190613735565b90506000600186600001805490506124dc9190613735565b905081811461254b5760008660000182815481106124fd576124fc6138ab565b5b9060005260206000200154905080876000018481548110612521576125206138ab565b5b90600052602060002001819055508387600101600083815260200190815260200160002081905550505b8560000180548061255f5761255e613a94565b5b6001900381819060005260206000200160009055905585600101600086815260200190815260200160002060009055600193505050506125a0565b60009150505b92915050565b600073ffffffffffffffffffffffffffffffffffffffff168273ffffffffffffffffffffffffffffffffffffffff1603612615576040517f08c379a000000000000000000000000000000000000000000000000000000000815260040161260c90613b0f565b60405180910390fd5b61261e81611c02565b1561265e576040517f08c379a000000000000000000000000000000000000000000000000000000000815260040161265590613b7b565b60405180910390fd5b61266c600083836001611c43565b61267581611c02565b156126b5576040517f08c379a00000000000000000000000000000000000000000000000000000000081526004016126ac90613b7b565b60405180910390fd5b6001600360008473ffffffffffffffffffffffffffffffffffffffff1673ffffffffffffffffffffffffffffffffffffffff16815260200190815260200160002060008282540192505081905550816002600083815260200190815260200160002060006101000a81548173ffffffffffffffffffffffffffffffffffffffff021916908373ffffffffffffffffffffffffffffffffffffffff160217905550808273ffffffffffffffffffffffffffffffffffffffff16600073ffffffffffffffffffffffffffffffffffffffff167fddf252ad1be2c89b69c2b068fc378daa952ba7f163c4a11628f55a4df523b3ef60405160405180910390a46127bf600083836001611d69565b5050565b6000808273ffffffffffffffffffffffffffffffffffffffff163b119050919050565b60007f01ffc9a7000000000000000000000000000000000000000000000000000000007bffffffffffffffffffffffffffffffffffffffffffffffffffffffff1916827bffffffffffffffffffffffffffffffffffffffffffffffffffffffff1916149050919050565b6000604051905090565b600080fd5b600080fd5b60007fffffffff0000000000000000000000000000000000000000000000000000000082169050919050565b61289981612864565b81146128a457600080fd5b50565b6000813590506128b681612890565b92915050565b6000602082840312156128d2576128d161285a565b5b60006128e0848285016128a7565b91505092915050565b60008115159050919050565b6128fe816128e9565b82525050565b600060208201905061291960008301846128f5565b92915050565b600081519050919050565b600082825260208201905092915050565b60005b8381101561295957808201518184015260208101905061293e565b60008484015250505050565b6000601f19601f8301169050919050565b60006129818261291f565b61298b818561292a565b935061299b81856020860161293b565b6129a481612965565b840191505092915050565b600060208201905081810360008301526129c98184612976565b905092915050565b6000819050919050565b6129e4816129d1565b81146129ef57600080fd5b50565b600081359050612a01816129db565b92915050565b600060208284031215612a1d57612a1c61285a565b5b6000612a2b848285016129f2565b91505092915050565b600073ffffffffffffffffffffffffffffffffffffffff82169050919050565b6000612a5f82612a34565b9050919050565b612a6f81612a54565b82525050565b6000602082019050612a8a6000830184612a66565b92915050565b612a9981612a54565b8114612aa457600080fd5b50565b600081359050612ab681612a90565b92915050565b60008060408385031215612ad357612ad261285a565b5b6000612ae185828601612aa7565b9250506020612af2858286016129f2565b9150509250929050565b600080600060608486031215612b1557612b1461285a565b5b6000612b2386828701612aa7565b9350506020612b3486828701612aa7565b9250506040612b45868287016129f2565b9150509250925092565b6000819050919050565b612b6281612b4f565b8114612b6d57600080fd5b50565b600081359050612b7f81612b59565b92915050565b600060208284031215612b9b57612b9a61285a565b5b6000612ba984828501612b70565b91505092915050565b612bbb81612b4f565b82525050565b6000602082019050612bd66000830184612bb2565b92915050565b60008060408385031215612bf357612bf261285a565b5b6000612c0185828601612b70565b9250506020612c1285828601612aa7565b9150509250929050565b600060208284031215612c3257612c3161285a565b5b6000612c4084828501612aa7565b91505092915050565b612c52816129d1565b82525050565b6000602082019050612c6d6000830184612c49565b92915050565b60008060408385031215612c8a57612c8961285a565b5b6000612c9885828601612b70565b9250506020612ca9858286016129f2565b9150509250929050565b612cbc816128e9565b8114612cc757600080fd5b50565b600081359050612cd981612cb3565b92915050565b60008060408385031215612cf657612cf561285a565b5b6000612d0485828601612aa7565b9250506020612d1585828601612cca565b9150509250929050565b600080fd5b600080fd5b7f4e487b7100000000000000000000000000000000000000000000000000000000600052604160045260246000fd5b612d6182612965565b810181811067ffffffffffffffff82111715612d8057612d7f612d29565b5b80604052505050565b6000612d93612850565b9050612d9f8282612d58565b919050565b600067ffffffffffffffff821115612dbf57612dbe612d29565b5b612dc882612965565b9050602081019050919050565b82818337600083830152505050565b6000612df7612df284612da4565b612d89565b905082815260208101848484011115612e1357612e12612d24565b5b612e1e848285612dd5565b509392505050565b600082601f830112612e3b57612e3a612d1f565b5b8135612e4b848260208601612de4565b91505092915050565b60008060008060808587031215612e6e57612e6d61285a565b5b6000612e7c87828801612aa7565b9450506020612e8d87828801612aa7565b9350506040612e9e878288016129f2565b925050606085013567ffffffffffffffff811115612ebf57612ebe61285f565b5b612ecb87828801612e26565b91505092959194509250565b60008060408385031215612eee57612eed61285a565b5b6000612efc85828601612aa7565b9250506020612f0d85828601612aa7565b9150509250929050565b7f4e487b7100000000000000000000000000000000000000000000000000000000600052602260045260246000fd5b60006002820490506001821680612f5e57607f821691505b602082108103612f7157612f70612f17565b5b50919050565b7f4552433732313a20617070726f76616c20746f2063757272656e74206f776e6560008201527f7200000000000000000000000000000000000000000000000000000000000000602082015250565b6000612fd360218361292a565b9150612fde82612f77565b604082019050919050565b6000602082019050818103600083015261300281612fc6565b9050919050565b7f4552433732313a20617070726f76652063616c6c6572206973206e6f7420746f60008201527f6b656e206f776e6572206f7220617070726f76656420666f7220616c6c000000602082015250565b6000613065603d8361292a565b915061307082613009565b604082019050919050565b6000602082019050818103600083015261309481613058565b9050919050565b7f4552433732313a2063616c6c6572206973206e6f7420746f6b656e206f776e6560008201527f72206f7220617070726f76656400000000000000000000000000000000000000602082015250565b60006130f7602d8361292a565b91506131028261309b565b604082019050919050565b60006020820190508181036000830152613126816130ea565b9050919050565b7f596f752063616e27742063616c6c20746869732066756e6374696f6e2e000000600082015250565b6000613163601d8361292a565b915061316e8261312d565b602082019050919050565b6000602082019050818103600083015261319281613156565b9050919050565b7f416363657373436f6e74726f6c3a2063616e206f6e6c792072656e6f756e636560008201527f20726f6c657320666f722073656c660000000000000000000000000000000000602082015250565b60006131f5602f8361292a565b915061320082613199565b604082019050919050565b60006020820190508181036000830152613224816131e8565b9050919050565b7f54686973204e4654206973206c696d6974656420746f206f6e6520706572207060008201527f6572736f6e000000000000000000000000000000000000000000000000000000602082015250565b600061328760258361292a565b91506132928261322b565b604082019050919050565b600060208201905081810360008301526132b68161327a565b9050919050565b6000819050919050565b6000819050919050565b60006132ec6132e76132e2846132bd565b6132c7565b6129d1565b9050919050565b6132fc816132d1565b82525050565b60006060820190506133176000830186612a66565b6133246020830185612a66565b61333160408301846132f3565b949350505050565b60008151905061334881612cb3565b92915050565b6000602082840312156133645761336361285a565b5b600061337284828501613339565b91505092915050565b7f4552433732313a20696e76616c696420746f6b656e2049440000000000000000600082015250565b60006133b160188361292a565b91506133bc8261337b565b602082019050919050565b600060208201905081810360008301526133e0816133a4565b9050919050565b7f4552433732313a2061646472657373207a65726f206973206e6f74206120766160008201527f6c6964206f776e65720000000000000000000000000000000000000000000000602082015250565b600061344360298361292a565b915061344e826133e7565b604082019050919050565b6000602082019050818103600083015261347281613436565b9050919050565b600081519050613488816129db565b92915050565b6000602082840312156134a4576134a361285a565b5b60006134b284828501613479565b91505092915050565b60006040820190506134d06000830185612a66565b6134dd6020830184612c49565b9392505050565b7f4552433732313a207472616e736665722066726f6d20696e636f72726563742060008201527f6f776e6572000000000000000000000000000000000000000000000000000000602082015250565b600061354060258361292a565b915061354b826134e4565b604082019050919050565b6000602082019050818103600083015261356f81613533565b9050919050565b7f4552433732313a207472616e7366657220746f20746865207a65726f2061646460008201527f7265737300000000000000000000000000000000000000000000000000000000602082015250565b60006135d260248361292a565b91506135dd82613576565b604082019050919050565b60006020820190508181036000830152613601816135c5565b9050919050565b7f4552433732313a20617070726f766520746f2063616c6c657200000000000000600082015250565b600061363e60198361292a565b915061364982613608565b602082019050919050565b6000602082019050818103600083015261366d81613631565b9050919050565b7f4552433732313a207472616e7366657220746f206e6f6e20455243373231526560008201527f63656976657220696d706c656d656e7465720000000000000000000000000000602082015250565b60006136d060328361292a565b91506136db82613674565b604082019050919050565b600060208201905081810360008301526136ff816136c3565b9050919050565b7f4e487b7100000000000000000000000000000000000000000000000000000000600052601160045260246000fd5b6000613740826129d1565b915061374b836129d1565b925082820390508181111561376357613762613706565b5b92915050565b6000613774826129d1565b915061377f836129d1565b925082820190508082111561379757613796613706565b5b92915050565b600081905092915050565b7f416363657373436f6e74726f6c3a206163636f756e7420000000000000000000600082015250565b60006137de60178361379d565b91506137e9826137a8565b601782019050919050565b60006137ff8261291f565b613809818561379d565b935061381981856020860161293b565b80840191505092915050565b7f206973206d697373696e6720726f6c6520000000000000000000000000000000600082015250565b600061385b60118361379d565b915061386682613825565b601182019050919050565b600061387c826137d1565b915061388882856137f4565b91506138938261384e565b915061389f82846137f4565b91508190509392505050565b7f4e487b7100000000000000000000000000000000000000000000000000000000600052603260045260246000fd5b600081519050919050565b600082825260208201905092915050565b6000613901826138da565b61390b81856138e5565b935061391b81856020860161293b565b61392481612965565b840191505092915050565b60006080820190506139446000830187612a66565b6139516020830186612a66565b61395e6040830185612c49565b818103606083015261397081846138f6565b905095945050505050565b60008151905061398a81612890565b92915050565b6000602082840312156139a6576139a561285a565b5b60006139b48482850161397b565b91505092915050565b60006139c8826129d1565b91506139d3836129d1565b92508282026139e1816129d1565b915082820484148315176139f8576139f7613706565b5b5092915050565b6000613a0a826129d1565b915060008203613a1d57613a1c613706565b5b600182039050919050565b7f537472696e67733a20686578206c656e67746820696e73756666696369656e74600082015250565b6000613a5e60208361292a565b9150613a6982613a28565b602082019050919050565b60006020820190508181036000830152613a8d81613a51565b9050919050565b7f4e487b7100000000000000000000000000000000000000000000000000000000600052603160045260246000fd5b7f4552433732313a206d696e7420746f20746865207a65726f2061646472657373600082015250565b6000613af960208361292a565b9150613b0482613ac3565b602082019050919050565b60006020820190508181036000830152613b2881613aec565b9050919050565b7f4552433732313a20746f6b656e20616c7265616479206d696e74656400000000600082015250565b6000613b65601c8361292a565b9150613b7082613b2f565b602082019050919050565b60006020820190508181036000830152613b9481613b58565b905091905056fea26469706673582212208c0107c1c30f5ac78cd1d8404d5d9c11f3d4ca80dd0eca585002b9f6fb98946864736f6c63430008110033",
  "linkReferences": {},
  "deployedLinkReferences": {}
}